{
  "_format": "hh-sol-artifact-1",
  "contractName": "Marketplace",
  "sourceName": "contracts/Marketplace.sol",
  "abi": [
    {
      "inputs": [
        {
          "internalType": "uint256",
          "name": "_index",
          "type": "uint256"
        }
      ],
      "name": "buyproduct",
      "outputs": [],
      "stateMutability": "payable",
      "type": "function"
    },
    {
      "inputs": [],
      "name": "getProductsLength",
      "outputs": [
        {
          "internalType": "uint256",
          "name": "",
          "type": "uint256"
        }
      ],
      "stateMutability": "view",
      "type": "function"
    },
    {
      "inputs": [
        {
          "internalType": "uint256",
          "name": "_index",
          "type": "uint256"
        }
      ],
      "name": "readProduct",
      "outputs": [
        {
          "internalType": "address payable",
          "name": "",
          "type": "address"
        },
        {
          "internalType": "string",
          "name": "",
          "type": "string"
        },
        {
          "internalType": "string",
          "name": "",
          "type": "string"
        },
        {
          "internalType": "string",
          "name": "",
          "type": "string"
        },
        {
          "internalType": "string",
          "name": "",
          "type": "string"
        },
        {
          "internalType": "uint256",
          "name": "",
          "type": "uint256"
        },
        {
          "internalType": "uint256",
          "name": "",
          "type": "uint256"
        },
        {
          "internalType": "uint256",
          "name": "",
          "type": "uint256"
        },
        {
          "internalType": "bool",
          "name": "",
          "type": "bool"
        }
      ],
      "stateMutability": "view",
      "type": "function"
    },
    {
      "inputs": [
        {
          "internalType": "uint256",
          "name": "_index",
          "type": "uint256"
        },
        {
          "internalType": "uint256",
          "name": "_quantity",
          "type": "uint256"
        },
        {
          "internalType": "uint256",
          "name": "_price",
          "type": "uint256"
        }
      ],
      "name": "updateProduct",
      "outputs": [],
      "stateMutability": "nonpayable",
      "type": "function"
    },
    {
      "inputs": [
        {
          "internalType": "string",
          "name": "_name",
          "type": "string"
        },
        {
          "internalType": "string",
          "name": "_image",
          "type": "string"
        },
        {
          "internalType": "string",
          "name": "_description",
          "type": "string"
        },
        {
          "internalType": "string",
          "name": "_location",
          "type": "string"
        },
        {
          "internalType": "uint256",
          "name": "_price",
          "type": "uint256"
        },
        {
          "internalType": "uint256",
          "name": "_quantity",
          "type": "uint256"
        }
      ],
      "name": "writeProduct",
      "outputs": [],
      "stateMutability": "nonpayable",
      "type": "function"
    }
  ],
  "bytecode": "0x608060405273874069fa1eb16d44d622f2e0ca25eea172369bc1600160006101000a81548173ffffffffffffffffffffffffffffffffffffffff021916908373ffffffffffffffffffffffffffffffffffffffff16021790555034801561006557600080fd5b506112fc806100756000396000f3fe60806040526004361061004a5760003560e01c80631155dfe51461004f57806332cf6faa1461007a57806356730286146100a3578063f85292ca146100bf578063fffa7e2e146100e8575b600080fd5b34801561005b57600080fd5b5061006461012d565b6040516100719190610836565b60405180910390f35b34801561008657600080fd5b506100a1600480360381019061009c91906109d7565b610136565b005b6100bd60048036038101906100b89190610ad4565b6102e8565b005b3480156100cb57600080fd5b506100e660048036038101906100e19190610b01565b610517565b005b3480156100f457600080fd5b5061010f600480360381019061010a9190610ad4565b610552565b60405161012499989796959493929190610c2f565b60405180910390f35b60008054905090565b600080821161017a576040517f08c379a000000000000000000000000000000000000000000000000000000000815260040161017190610d4a565b60405180910390fd5b6040518061012001604052803373ffffffffffffffffffffffffffffffffffffffff16815260200188815260200187815260200186815260200185815260200184815260200182815260200183815260200160011515815250600260008054815260200190815260200160002060008201518160000160006101000a81548173ffffffffffffffffffffffffffffffffffffffff021916908373ffffffffffffffffffffffffffffffffffffffff16021790555060208201518160010190816102439190610f76565b5060408201518160020190816102599190610f76565b50606082015181600301908161026f9190610f76565b5060808201518160040190816102859190610f76565b5060a0820151816005015560c0820151816006015560e082015181600701556101008201518160080160006101000a81548160ff0219169083151502179055509050506000808154809291906102da90611077565b919050555050505050505050565b6000600260008381526020019081526020016000206007015411610341576040517f08c379a00000000000000000000000000000000000000000000000000000000081526004016103389061110b565b60405180910390fd5b600160009054906101000a900473ffffffffffffffffffffffffffffffffffffffff1673ffffffffffffffffffffffffffffffffffffffff166323b872dd336002600085815260200190815260200160002060000160009054906101000a900473ffffffffffffffffffffffffffffffffffffffff1660026000868152602001908152602001600020600501546040518463ffffffff1660e01b81526004016103ec939291906111a1565b6020604051808303816000875af115801561040b573d6000803e3d6000fd5b505050506040513d601f19601f8201168201806040525081019061042f9190611204565b61046e576040517f08c379a00000000000000000000000000000000000000000000000000000000081526004016104659061127d565b60405180910390fd5b60026000828152602001908152602001600020600601600081548092919061049590611077565b91905055506002600082815260200190815260200160002060070160008154809291906104c19061129d565b919050555060006002600083815260200190815260200160002060070154036105145760006002600083815260200190815260200160002060080160006101000a81548160ff0219169083151502179055505b50565b816002600085815260200190815260200160002060070181905550806002600085815260200190815260200160002060050181905550505050565b60006060806060806000806000806000600260008c815260200190815260200160002090508060000160009054906101000a900473ffffffffffffffffffffffffffffffffffffffff16816001018260020183600301846004018560050154866006015487600701548860080160009054906101000a900460ff168780546105d990610d99565b80601f016020809104026020016040519081016040528092919081815260200182805461060590610d99565b80156106525780601f1061062757610100808354040283529160200191610652565b820191906000526020600020905b81548152906001019060200180831161063557829003601f168201915b5050505050975086805461066590610d99565b80601f016020809104026020016040519081016040528092919081815260200182805461069190610d99565b80156106de5780601f106106b3576101008083540402835291602001916106de565b820191906000526020600020905b8154815290600101906020018083116106c157829003601f168201915b505050505096508580546106f190610d99565b80601f016020809104026020016040519081016040528092919081815260200182805461071d90610d99565b801561076a5780601f1061073f5761010080835404028352916020019161076a565b820191906000526020600020905b81548152906001019060200180831161074d57829003601f168201915b5050505050955084805461077d90610d99565b80601f01602080910402602001604051908101604052809291908181526020018280546107a990610d99565b80156107f65780601f106107cb576101008083540402835291602001916107f6565b820191906000526020600020905b8154815290600101906020018083116107d957829003601f168201915b50505050509450995099509950995099509950995099509950509193959799909294969850565b6000819050919050565b6108308161081d565b82525050565b600060208201905061084b6000830184610827565b92915050565b6000604051905090565b600080fd5b600080fd5b600080fd5b600080fd5b6000601f19601f8301169050919050565b7f4e487b7100000000000000000000000000000000000000000000000000000000600052604160045260246000fd5b6108b88261086f565b810181811067ffffffffffffffff821117156108d7576108d6610880565b5b80604052505050565b60006108ea610851565b90506108f682826108af565b919050565b600067ffffffffffffffff82111561091657610915610880565b5b61091f8261086f565b9050602081019050919050565b82818337600083830152505050565b600061094e610949846108fb565b6108e0565b90508281526020810184848401111561096a5761096961086a565b5b61097584828561092c565b509392505050565b600082601f83011261099257610991610865565b5b81356109a284826020860161093b565b91505092915050565b6109b48161081d565b81146109bf57600080fd5b50565b6000813590506109d1816109ab565b92915050565b60008060008060008060c087890312156109f4576109f361085b565b5b600087013567ffffffffffffffff811115610a1257610a11610860565b5b610a1e89828a0161097d565b965050602087013567ffffffffffffffff811115610a3f57610a3e610860565b5b610a4b89828a0161097d565b955050604087013567ffffffffffffffff811115610a6c57610a6b610860565b5b610a7889828a0161097d565b945050606087013567ffffffffffffffff811115610a9957610a98610860565b5b610aa589828a0161097d565b9350506080610ab689828a016109c2565b92505060a0610ac789828a016109c2565b9150509295509295509295565b600060208284031215610aea57610ae961085b565b5b6000610af8848285016109c2565b91505092915050565b600080600060608486031215610b1a57610b1961085b565b5b6000610b28868287016109c2565b9350506020610b39868287016109c2565b9250506040610b4a868287016109c2565b9150509250925092565b600073ffffffffffffffffffffffffffffffffffffffff82169050919050565b6000610b7f82610b54565b9050919050565b610b8f81610b74565b82525050565b600081519050919050565b600082825260208201905092915050565b60005b83811015610bcf578082015181840152602081019050610bb4565b60008484015250505050565b6000610be682610b95565b610bf08185610ba0565b9350610c00818560208601610bb1565b610c098161086f565b840191505092915050565b60008115159050919050565b610c2981610c14565b82525050565b600061012082019050610c45600083018c610b86565b8181036020830152610c57818b610bdb565b90508181036040830152610c6b818a610bdb565b90508181036060830152610c7f8189610bdb565b90508181036080830152610c938188610bdb565b9050610ca260a0830187610827565b610caf60c0830186610827565b610cbc60e0830185610827565b610cca610100830184610c20565b9a9950505050505050505050565b7f5175616e74697479204d7573742062652067726561746572207468616e207a6560008201527f726f000000000000000000000000000000000000000000000000000000000000602082015250565b6000610d34602283610ba0565b9150610d3f82610cd8565b604082019050919050565b60006020820190508181036000830152610d6381610d27565b9050919050565b7f4e487b7100000000000000000000000000000000000000000000000000000000600052602260045260246000fd5b60006002820490506001821680610db157607f821691505b602082108103610dc457610dc3610d6a565b5b50919050565b60008190508160005260206000209050919050565b60006020601f8301049050919050565b600082821b905092915050565b600060088302610e2c7fffffffffffffffffffffffffffffffffffffffffffffffffffffffffffffffff82610def565b610e368683610def565b95508019841693508086168417925050509392505050565b6000819050919050565b6000610e73610e6e610e698461081d565b610e4e565b61081d565b9050919050565b6000819050919050565b610e8d83610e58565b610ea1610e9982610e7a565b848454610dfc565b825550505050565b600090565b610eb6610ea9565b610ec1818484610e84565b505050565b5b81811015610ee557610eda600082610eae565b600181019050610ec7565b5050565b601f821115610f2a57610efb81610dca565b610f0484610ddf565b81016020851015610f13578190505b610f27610f1f85610ddf565b830182610ec6565b50505b505050565b600082821c905092915050565b6000610f4d60001984600802610f2f565b1980831691505092915050565b6000610f668383610f3c565b9150826002028217905092915050565b610f7f82610b95565b67ffffffffffffffff811115610f9857610f97610880565b5b610fa28254610d99565b610fad828285610ee9565b600060209050601f831160018114610fe05760008415610fce578287015190505b610fd88582610f5a565b865550611040565b601f198416610fee86610dca565b60005b8281101561101657848901518255600182019150602085019450602081019050610ff1565b86831015611033578489015161102f601f891682610f3c565b8355505b6001600288020188555050505b505050505050565b7f4e487b7100000000000000000000000000000000000000000000000000000000600052601160045260246000fd5b60006110828261081d565b91507fffffffffffffffffffffffffffffffffffffffffffffffffffffffffffffffff82036110b4576110b3611048565b5b600182019050919050565b7f7468657265206973206e6f2070726f64756374206c6566740000000000000000600082015250565b60006110f5601883610ba0565b9150611100826110bf565b602082019050919050565b60006020820190508181036000830152611124816110e8565b9050919050565b600061113682610b54565b9050919050565b6111468161112b565b82525050565b600061116761116261115d84610b54565b610e4e565b610b54565b9050919050565b60006111798261114c565b9050919050565b600061118b8261116e565b9050919050565b61119b81611180565b82525050565b60006060820190506111b6600083018661113d565b6111c36020830185611192565b6111d06040830184610827565b949350505050565b6111e181610c14565b81146111ec57600080fd5b50565b6000815190506111fe816111d8565b92915050565b60006020828403121561121a5761121961085b565b5b6000611228848285016111ef565b91505092915050565b7f5472616e73666572204661696c65640000000000000000000000000000000000600082015250565b6000611267600f83610ba0565b915061127282611231565b602082019050919050565b600060208201905081810360008301526112968161125a565b9050919050565b60006112a88261081d565b9150600082036112bb576112ba611048565b5b60018203905091905056fea2646970667358221220fc6cf7f4307725331491b711ac080a686c5ca47b0d53ebcfd4e30e9038ba6efa64736f6c63430008130033",
  "linkReferences": {},
  "deployedLinkReferences": {}
}