{
  "_format": "hh-sol-artifact-1",
  "contractName": "Marketplace",
  "sourceName": "contracts/Marketplace.sol",
  "abi": [
    {
      "inputs": [
        {
          "internalType": "uint256",
          "name": "_index",
          "type": "uint256"
        }
      ],
      "name": "buyproduct",
      "outputs": [],
      "stateMutability": "payable",
      "type": "function"
    },
    {
      "inputs": [],
      "name": "getProductsLength",
      "outputs": [
        {
          "internalType": "uint256",
          "name": "",
          "type": "uint256"
        }
      ],
      "stateMutability": "view",
      "type": "function"
    },
    {
      "inputs": [
        {
          "internalType": "uint256",
          "name": "_index",
          "type": "uint256"
        }
      ],
      "name": "readProduct",
      "outputs": [
        {
          "internalType": "address payable",
          "name": "",
          "type": "address"
        },
        {
          "internalType": "string",
          "name": "",
          "type": "string"
        },
        {
          "internalType": "string",
          "name": "",
          "type": "string"
        },
        {
          "internalType": "string",
          "name": "",
          "type": "string"
        },
        {
          "internalType": "string",
          "name": "",
          "type": "string"
        },
        {
          "internalType": "uint256",
          "name": "",
          "type": "uint256"
        },
        {
          "internalType": "uint256",
          "name": "",
          "type": "uint256"
        },
        {
          "internalType": "uint256",
          "name": "",
          "type": "uint256"
        },
        {
          "internalType": "bool",
          "name": "",
          "type": "bool"
        }
      ],
      "stateMutability": "view",
      "type": "function"
    },
    {
      "inputs": [
        {
          "internalType": "uint256",
          "name": "_index",
          "type": "uint256"
        },
        {
          "internalType": "uint256",
          "name": "_quantity",
          "type": "uint256"
        },
        {
          "internalType": "uint256",
          "name": "_price",
          "type": "uint256"
        }
      ],
      "name": "updateProduct",
      "outputs": [],
      "stateMutability": "nonpayable",
      "type": "function"
    },
    {
      "inputs": [
        {
          "internalType": "string",
          "name": "_name",
          "type": "string"
        },
        {
          "internalType": "string",
          "name": "_image",
          "type": "string"
        },
        {
          "internalType": "string",
          "name": "_description",
          "type": "string"
        },
        {
          "internalType": "string",
          "name": "_location",
          "type": "string"
        },
        {
          "internalType": "uint256",
          "name": "_price",
          "type": "uint256"
        },
        {
          "internalType": "uint256",
          "name": "_quantity",
          "type": "uint256"
        }
      ],
      "name": "writeProduct",
      "outputs": [],
      "stateMutability": "nonpayable",
      "type": "function"
    }
  ],
  "bytecode": "0x60806040526000805573874069fa1eb16d44d622f2e0ca25eea172369bc1600160006101000a81548173ffffffffffffffffffffffffffffffffffffffff021916908373ffffffffffffffffffffffffffffffffffffffff16021790555034801561006957600080fd5b50611225806100796000396000f3fe60806040526004361061004a5760003560e01c80631155dfe51461004f57806332cf6faa1461007a57806356730286146100a3578063f85292ca146100bf578063fffa7e2e146100e8575b600080fd5b34801561005b57600080fd5b5061006461012d565b60405161007191906107f1565b60405180910390f35b34801561008657600080fd5b506100a1600480360381019061009c9190610992565b610136565b005b6100bd60048036038101906100b89190610a8f565b6102a3565b005b3480156100cb57600080fd5b506100e660048036038101906100e19190610abc565b6104d2565b005b3480156100f457600080fd5b5061010f600480360381019061010a9190610a8f565b61050d565b60405161012499989796959493929190610bea565b60405180910390f35b60008054905090565b60006040518061012001604052803373ffffffffffffffffffffffffffffffffffffffff16815260200188815260200187815260200186815260200185815260200184815260200182815260200183815260200160011515815250600260008060008154809291906101a790610cc2565b91905055815260200190815260200160002060008201518160000160006101000a81548173ffffffffffffffffffffffffffffffffffffffff021916908373ffffffffffffffffffffffffffffffffffffffff16021790555060208201518160010190816102159190610f16565b50604082015181600201908161022b9190610f16565b5060608201518160030190816102419190610f16565b5060808201518160040190816102579190610f16565b5060a0820151816005015560c0820151816006015560e082015181600701556101008201518160080160006101000a81548160ff02191690831515021790555090505050505050505050565b60006002600083815260200190815260200160002060070154116102fc576040517f08c379a00000000000000000000000000000000000000000000000000000000081526004016102f390611034565b60405180910390fd5b600160009054906101000a900473ffffffffffffffffffffffffffffffffffffffff1673ffffffffffffffffffffffffffffffffffffffff166323b872dd336002600085815260200190815260200160002060000160009054906101000a900473ffffffffffffffffffffffffffffffffffffffff1660026000868152602001908152602001600020600501546040518463ffffffff1660e01b81526004016103a7939291906110ca565b6020604051808303816000875af11580156103c6573d6000803e3d6000fd5b505050506040513d601f19601f820116820180604052508101906103ea919061112d565b610429576040517f08c379a0000000000000000000000000000000000000000000000000000000008152600401610420906111a6565b60405180910390fd5b60026000828152602001908152602001600020600601600081548092919061045090610cc2565b919050555060026000828152602001908152602001600020600701600081548092919061047c906111c6565b919050555060006002600083815260200190815260200160002060070154036104cf5760006002600083815260200190815260200160002060080160006101000a81548160ff0219169083151502179055505b50565b816002600085815260200190815260200160002060070181905550806002600085815260200190815260200160002060050181905550505050565b60006060806060806000806000806000600260008c815260200190815260200160002090508060000160009054906101000a900473ffffffffffffffffffffffffffffffffffffffff16816001018260020183600301846004018560050154866006015487600701548860080160009054906101000a900460ff1687805461059490610d39565b80601f01602080910402602001604051908101604052809291908181526020018280546105c090610d39565b801561060d5780601f106105e25761010080835404028352916020019161060d565b820191906000526020600020905b8154815290600101906020018083116105f057829003601f168201915b5050505050975086805461062090610d39565b80601f016020809104026020016040519081016040528092919081815260200182805461064c90610d39565b80156106995780601f1061066e57610100808354040283529160200191610699565b820191906000526020600020905b81548152906001019060200180831161067c57829003601f168201915b505050505096508580546106ac90610d39565b80601f01602080910402602001604051908101604052809291908181526020018280546106d890610d39565b80156107255780601f106106fa57610100808354040283529160200191610725565b820191906000526020600020905b81548152906001019060200180831161070857829003601f168201915b5050505050955084805461073890610d39565b80601f016020809104026020016040519081016040528092919081815260200182805461076490610d39565b80156107b15780601f10610786576101008083540402835291602001916107b1565b820191906000526020600020905b81548152906001019060200180831161079457829003601f168201915b50505050509450995099509950995099509950995099509950509193959799909294969850565b6000819050919050565b6107eb816107d8565b82525050565b600060208201905061080660008301846107e2565b92915050565b6000604051905090565b600080fd5b600080fd5b600080fd5b600080fd5b6000601f19601f8301169050919050565b7f4e487b7100000000000000000000000000000000000000000000000000000000600052604160045260246000fd5b6108738261082a565b810181811067ffffffffffffffff821117156108925761089161083b565b5b80604052505050565b60006108a561080c565b90506108b1828261086a565b919050565b600067ffffffffffffffff8211156108d1576108d061083b565b5b6108da8261082a565b9050602081019050919050565b82818337600083830152505050565b6000610909610904846108b6565b61089b565b90508281526020810184848401111561092557610924610825565b5b6109308482856108e7565b509392505050565b600082601f83011261094d5761094c610820565b5b813561095d8482602086016108f6565b91505092915050565b61096f816107d8565b811461097a57600080fd5b50565b60008135905061098c81610966565b92915050565b60008060008060008060c087890312156109af576109ae610816565b5b600087013567ffffffffffffffff8111156109cd576109cc61081b565b5b6109d989828a01610938565b965050602087013567ffffffffffffffff8111156109fa576109f961081b565b5b610a0689828a01610938565b955050604087013567ffffffffffffffff811115610a2757610a2661081b565b5b610a3389828a01610938565b945050606087013567ffffffffffffffff811115610a5457610a5361081b565b5b610a6089828a01610938565b9350506080610a7189828a0161097d565b92505060a0610a8289828a0161097d565b9150509295509295509295565b600060208284031215610aa557610aa4610816565b5b6000610ab38482850161097d565b91505092915050565b600080600060608486031215610ad557610ad4610816565b5b6000610ae38682870161097d565b9350506020610af48682870161097d565b9250506040610b058682870161097d565b9150509250925092565b600073ffffffffffffffffffffffffffffffffffffffff82169050919050565b6000610b3a82610b0f565b9050919050565b610b4a81610b2f565b82525050565b600081519050919050565b600082825260208201905092915050565b60005b83811015610b8a578082015181840152602081019050610b6f565b60008484015250505050565b6000610ba182610b50565b610bab8185610b5b565b9350610bbb818560208601610b6c565b610bc48161082a565b840191505092915050565b60008115159050919050565b610be481610bcf565b82525050565b600061012082019050610c00600083018c610b41565b8181036020830152610c12818b610b96565b90508181036040830152610c26818a610b96565b90508181036060830152610c3a8189610b96565b90508181036080830152610c4e8188610b96565b9050610c5d60a08301876107e2565b610c6a60c08301866107e2565b610c7760e08301856107e2565b610c85610100830184610bdb565b9a9950505050505050505050565b7f4e487b7100000000000000000000000000000000000000000000000000000000600052601160045260246000fd5b6000610ccd826107d8565b91507fffffffffffffffffffffffffffffffffffffffffffffffffffffffffffffffff8203610cff57610cfe610c93565b5b600182019050919050565b7f4e487b7100000000000000000000000000000000000000000000000000000000600052602260045260246000fd5b60006002820490506001821680610d5157607f821691505b602082108103610d6457610d63610d0a565b5b50919050565b60008190508160005260206000209050919050565b60006020601f8301049050919050565b600082821b905092915050565b600060088302610dcc7fffffffffffffffffffffffffffffffffffffffffffffffffffffffffffffffff82610d8f565b610dd68683610d8f565b95508019841693508086168417925050509392505050565b6000819050919050565b6000610e13610e0e610e09846107d8565b610dee565b6107d8565b9050919050565b6000819050919050565b610e2d83610df8565b610e41610e3982610e1a565b848454610d9c565b825550505050565b600090565b610e56610e49565b610e61818484610e24565b505050565b5b81811015610e8557610e7a600082610e4e565b600181019050610e67565b5050565b601f821115610eca57610e9b81610d6a565b610ea484610d7f565b81016020851015610eb3578190505b610ec7610ebf85610d7f565b830182610e66565b50505b505050565b600082821c905092915050565b6000610eed60001984600802610ecf565b1980831691505092915050565b6000610f068383610edc565b9150826002028217905092915050565b610f1f82610b50565b67ffffffffffffffff811115610f3857610f3761083b565b5b610f428254610d39565b610f4d828285610e89565b600060209050601f831160018114610f805760008415610f6e578287015190505b610f788582610efa565b865550610fe0565b601f198416610f8e86610d6a565b60005b82811015610fb657848901518255600182019150602085019450602081019050610f91565b86831015610fd35784890151610fcf601f891682610edc565b8355505b6001600288020188555050505b505050505050565b7f7468657265206973206e6f2070726f64756374206c6566740000000000000000600082015250565b600061101e601883610b5b565b915061102982610fe8565b602082019050919050565b6000602082019050818103600083015261104d81611011565b9050919050565b600061105f82610b0f565b9050919050565b61106f81611054565b82525050565b600061109061108b61108684610b0f565b610dee565b610b0f565b9050919050565b60006110a282611075565b9050919050565b60006110b482611097565b9050919050565b6110c4816110a9565b82525050565b60006060820190506110df6000830186611066565b6110ec60208301856110bb565b6110f960408301846107e2565b949350505050565b61110a81610bcf565b811461111557600080fd5b50565b60008151905061112781611101565b92915050565b60006020828403121561114357611142610816565b5b600061115184828501611118565b91505092915050565b7f5472616e73666572204661696c65640000000000000000000000000000000000600082015250565b6000611190600f83610b5b565b915061119b8261115a565b602082019050919050565b600060208201905081810360008301526111bf81611183565b9050919050565b60006111d1826107d8565b9150600082036111e4576111e3610c93565b5b60018203905091905056fea2646970667358221220fd5de96a64949d0059be2f840c21cd3234294b1a140eea000263266c4e16fbed64736f6c63430008130033",
  "linkReferences": {},
  "deployedLinkReferences": {}
}