{
  "_format": "hh-sol-artifact-1",
  "contractName": "Marketplace",
  "sourceName": "contracts/Marketplace.sol",
  "abi": [
    {
      "inputs": [
        {
          "internalType": "address payable",
          "name": "_seller",
          "type": "address"
        }
      ],
      "name": "assignSeller",
      "outputs": [],
      "stateMutability": "nonpayable",
      "type": "function"
    },
    {
      "inputs": [
        {
          "internalType": "address",
          "name": "",
          "type": "address"
        }
      ],
      "name": "becomeSeller",
      "outputs": [
        {
          "internalType": "bool",
          "name": "",
          "type": "bool"
        }
      ],
      "stateMutability": "view",
      "type": "function"
    },
    {
      "inputs": [
        {
          "internalType": "uint256",
          "name": "_index",
          "type": "uint256"
        }
      ],
      "name": "buyproduct",
      "outputs": [],
      "stateMutability": "payable",
      "type": "function"
    },
    {
      "inputs": [],
      "name": "getProductsLength",
      "outputs": [
        {
          "internalType": "uint256",
          "name": "",
          "type": "uint256"
        }
      ],
      "stateMutability": "view",
      "type": "function"
    },
    {
      "inputs": [
        {
          "internalType": "uint256",
          "name": "_index",
          "type": "uint256"
        }
      ],
      "name": "readProduct",
      "outputs": [
        {
          "internalType": "address payable",
          "name": "",
          "type": "address"
        },
        {
          "internalType": "string",
          "name": "",
          "type": "string"
        },
        {
          "internalType": "string",
          "name": "",
          "type": "string"
        },
        {
          "internalType": "string",
          "name": "",
          "type": "string"
        },
        {
          "internalType": "string",
          "name": "",
          "type": "string"
        },
        {
          "internalType": "uint256",
          "name": "",
          "type": "uint256"
        },
        {
          "internalType": "uint256",
          "name": "",
          "type": "uint256"
        },
        {
          "internalType": "uint256",
          "name": "",
          "type": "uint256"
        },
        {
          "internalType": "bool",
          "name": "",
          "type": "bool"
        }
      ],
      "stateMutability": "view",
      "type": "function"
    },
    {
      "inputs": [
        {
          "internalType": "uint256",
          "name": "_index",
          "type": "uint256"
        },
        {
          "internalType": "uint256",
          "name": "_quantity",
          "type": "uint256"
        },
        {
          "internalType": "uint256",
          "name": "_price",
          "type": "uint256"
        }
      ],
      "name": "updateProduct",
      "outputs": [],
      "stateMutability": "nonpayable",
      "type": "function"
    },
    {
      "inputs": [
        {
          "internalType": "string",
          "name": "_name",
          "type": "string"
        },
        {
          "internalType": "string",
          "name": "_image",
          "type": "string"
        },
        {
          "internalType": "string",
          "name": "_description",
          "type": "string"
        },
        {
          "internalType": "string",
          "name": "_location",
          "type": "string"
        },
        {
          "internalType": "uint256",
          "name": "_price",
          "type": "uint256"
        },
        {
          "internalType": "uint256",
          "name": "_quantity",
          "type": "uint256"
        }
      ],
      "name": "writeProduct",
      "outputs": [],
      "stateMutability": "nonpayable",
      "type": "function"
    }
  ],
  "bytecode": "0x60806040526000805573874069fa1eb16d44d622f2e0ca25eea172369bc1600160006101000a81548173ffffffffffffffffffffffffffffffffffffffff021916908373ffffffffffffffffffffffffffffffffffffffff16021790555034801561006957600080fd5b506116cb806100796000396000f3fe6080604052600436106100705760003560e01c8063567302861161004e5780635673028614610106578063bc7ff27414610122578063f85292ca1461014b578063fffa7e2e1461017457610070565b806305bf9de6146100755780631155dfe5146100b257806332cf6faa146100dd575b600080fd5b34801561008157600080fd5b5061009c60048036038101906100979190610adf565b6101b9565b6040516100a99190610b27565b60405180910390f35b3480156100be57600080fd5b506100c76101d9565b6040516100d49190610b5b565b60405180910390f35b3480156100e957600080fd5b5061010460048036038101906100ff9190610ce8565b6101e2565b005b610120600480360381019061011b9190610de5565b6103db565b005b34801561012e57600080fd5b5061014960048036038101906101449190610e50565b61060a565b005b34801561015757600080fd5b50610172600480360381019061016d9190610e7d565b610767565b005b34801561018057600080fd5b5061019b60048036038101906101969190610de5565b6107a2565b6040516101b099989796959493929190610f5e565b60405180910390f35b60036020528060005260406000206000915054906101000a900460ff1681565b60008054905090565b600360003373ffffffffffffffffffffffffffffffffffffffff1673ffffffffffffffffffffffffffffffffffffffff16815260200190815260200160002060009054906101000a900460ff1661026e576040517f08c379a000000000000000000000000000000000000000000000000000000000815260040161026590611053565b60405180910390fd5b60006040518061012001604052803373ffffffffffffffffffffffffffffffffffffffff16815260200188815260200187815260200186815260200185815260200184815260200182815260200183815260200160011515815250600260008060008154809291906102df906110a2565b91905055815260200190815260200160002060008201518160000160006101000a81548173ffffffffffffffffffffffffffffffffffffffff021916908373ffffffffffffffffffffffffffffffffffffffff160217905550602082015181600101908161034d91906112f6565b50604082015181600201908161036391906112f6565b50606082015181600301908161037991906112f6565b50608082015181600401908161038f91906112f6565b5060a0820151816005015560c0820151816006015560e082015181600701556101008201518160080160006101000a81548160ff02191690831515021790555090505050505050505050565b6000600260008381526020019081526020016000206007015411610434576040517f08c379a000000000000000000000000000000000000000000000000000000000815260040161042b90611414565b60405180910390fd5b600160009054906101000a900473ffffffffffffffffffffffffffffffffffffffff1673ffffffffffffffffffffffffffffffffffffffff166323b872dd336002600085815260200190815260200160002060000160009054906101000a900473ffffffffffffffffffffffffffffffffffffffff1660026000868152602001908152602001600020600501546040518463ffffffff1660e01b81526004016104df93929190611498565b6020604051808303816000875af11580156104fe573d6000803e3d6000fd5b505050506040513d601f19601f8201168201806040525081019061052291906114fb565b610561576040517f08c379a000000000000000000000000000000000000000000000000000000000815260040161055890611574565b60405180910390fd5b600260008281526020019081526020016000206006016000815480929190610588906110a2565b91905055506002600082815260200190815260200160002060070160008154809291906105b490611594565b919050555060006002600083815260200190815260200160002060070154036106075760006002600083815260200190815260200160002060080160006101000a81548160ff0219169083151502179055505b50565b600073ffffffffffffffffffffffffffffffffffffffff168173ffffffffffffffffffffffffffffffffffffffff1603610679576040517f08c379a000000000000000000000000000000000000000000000000000000000815260040161067090611609565b60405180910390fd5b60011515600360008373ffffffffffffffffffffffffffffffffffffffff1673ffffffffffffffffffffffffffffffffffffffff16815260200190815260200160002060009054906101000a900460ff1615150361070c576040517f08c379a000000000000000000000000000000000000000000000000000000000815260040161070390611675565b60405180910390fd5b6001600360008373ffffffffffffffffffffffffffffffffffffffff1673ffffffffffffffffffffffffffffffffffffffff16815260200190815260200160002060006101000a81548160ff02191690831515021790555050565b816002600085815260200190815260200160002060070181905550806002600085815260200190815260200160002060050181905550505050565b60006060806060806000806000806000600260008c815260200190815260200160002090508060000160009054906101000a900473ffffffffffffffffffffffffffffffffffffffff16816001018260020183600301846004018560050154866006015487600701548860080160009054906101000a900460ff1687805461082990611119565b80601f016020809104026020016040519081016040528092919081815260200182805461085590611119565b80156108a25780601f10610877576101008083540402835291602001916108a2565b820191906000526020600020905b81548152906001019060200180831161088557829003601f168201915b505050505097508680546108b590611119565b80601f01602080910402602001604051908101604052809291908181526020018280546108e190611119565b801561092e5780601f106109035761010080835404028352916020019161092e565b820191906000526020600020905b81548152906001019060200180831161091157829003601f168201915b5050505050965085805461094190611119565b80601f016020809104026020016040519081016040528092919081815260200182805461096d90611119565b80156109ba5780601f1061098f576101008083540402835291602001916109ba565b820191906000526020600020905b81548152906001019060200180831161099d57829003601f168201915b505050505095508480546109cd90611119565b80601f01602080910402602001604051908101604052809291908181526020018280546109f990611119565b8015610a465780601f10610a1b57610100808354040283529160200191610a46565b820191906000526020600020905b815481529060010190602001808311610a2957829003601f168201915b50505050509450995099509950995099509950995099509950509193959799909294969850565b6000604051905090565b600080fd5b600080fd5b600073ffffffffffffffffffffffffffffffffffffffff82169050919050565b6000610aac82610a81565b9050919050565b610abc81610aa1565b8114610ac757600080fd5b50565b600081359050610ad981610ab3565b92915050565b600060208284031215610af557610af4610a77565b5b6000610b0384828501610aca565b91505092915050565b60008115159050919050565b610b2181610b0c565b82525050565b6000602082019050610b3c6000830184610b18565b92915050565b6000819050919050565b610b5581610b42565b82525050565b6000602082019050610b706000830184610b4c565b92915050565b600080fd5b600080fd5b6000601f19601f8301169050919050565b7f4e487b7100000000000000000000000000000000000000000000000000000000600052604160045260246000fd5b610bc982610b80565b810181811067ffffffffffffffff82111715610be857610be7610b91565b5b80604052505050565b6000610bfb610a6d565b9050610c078282610bc0565b919050565b600067ffffffffffffffff821115610c2757610c26610b91565b5b610c3082610b80565b9050602081019050919050565b82818337600083830152505050565b6000610c5f610c5a84610c0c565b610bf1565b905082815260208101848484011115610c7b57610c7a610b7b565b5b610c86848285610c3d565b509392505050565b600082601f830112610ca357610ca2610b76565b5b8135610cb3848260208601610c4c565b91505092915050565b610cc581610b42565b8114610cd057600080fd5b50565b600081359050610ce281610cbc565b92915050565b60008060008060008060c08789031215610d0557610d04610a77565b5b600087013567ffffffffffffffff811115610d2357610d22610a7c565b5b610d2f89828a01610c8e565b965050602087013567ffffffffffffffff811115610d5057610d4f610a7c565b5b610d5c89828a01610c8e565b955050604087013567ffffffffffffffff811115610d7d57610d7c610a7c565b5b610d8989828a01610c8e565b945050606087013567ffffffffffffffff811115610daa57610da9610a7c565b5b610db689828a01610c8e565b9350506080610dc789828a01610cd3565b92505060a0610dd889828a01610cd3565b9150509295509295509295565b600060208284031215610dfb57610dfa610a77565b5b6000610e0984828501610cd3565b91505092915050565b6000610e1d82610a81565b9050919050565b610e2d81610e12565b8114610e3857600080fd5b50565b600081359050610e4a81610e24565b92915050565b600060208284031215610e6657610e65610a77565b5b6000610e7484828501610e3b565b91505092915050565b600080600060608486031215610e9657610e95610a77565b5b6000610ea486828701610cd3565b9350506020610eb586828701610cd3565b9250506040610ec686828701610cd3565b9150509250925092565b610ed981610e12565b82525050565b600081519050919050565b600082825260208201905092915050565b60005b83811015610f19578082015181840152602081019050610efe565b60008484015250505050565b6000610f3082610edf565b610f3a8185610eea565b9350610f4a818560208601610efb565b610f5381610b80565b840191505092915050565b600061012082019050610f74600083018c610ed0565b8181036020830152610f86818b610f25565b90508181036040830152610f9a818a610f25565b90508181036060830152610fae8189610f25565b90508181036080830152610fc28188610f25565b9050610fd160a0830187610b4c565b610fde60c0830186610b4c565b610feb60e0830185610b4c565b610ff9610100830184610b18565b9a9950505050505050505050565b7f4d757374206265206120636f6c6c6563746f7200000000000000000000000000600082015250565b600061103d601383610eea565b915061104882611007565b602082019050919050565b6000602082019050818103600083015261106c81611030565b9050919050565b7f4e487b7100000000000000000000000000000000000000000000000000000000600052601160045260246000fd5b60006110ad82610b42565b91507fffffffffffffffffffffffffffffffffffffffffffffffffffffffffffffffff82036110df576110de611073565b5b600182019050919050565b7f4e487b7100000000000000000000000000000000000000000000000000000000600052602260045260246000fd5b6000600282049050600182168061113157607f821691505b602082108103611144576111436110ea565b5b50919050565b60008190508160005260206000209050919050565b60006020601f8301049050919050565b600082821b905092915050565b6000600883026111ac7fffffffffffffffffffffffffffffffffffffffffffffffffffffffffffffffff8261116f565b6111b6868361116f565b95508019841693508086168417925050509392505050565b6000819050919050565b60006111f36111ee6111e984610b42565b6111ce565b610b42565b9050919050565b6000819050919050565b61120d836111d8565b611221611219826111fa565b84845461117c565b825550505050565b600090565b611236611229565b611241818484611204565b505050565b5b818110156112655761125a60008261122e565b600181019050611247565b5050565b601f8211156112aa5761127b8161114a565b6112848461115f565b81016020851015611293578190505b6112a761129f8561115f565b830182611246565b50505b505050565b600082821c905092915050565b60006112cd600019846008026112af565b1980831691505092915050565b60006112e683836112bc565b9150826002028217905092915050565b6112ff82610edf565b67ffffffffffffffff81111561131857611317610b91565b5b6113228254611119565b61132d828285611269565b600060209050601f831160018114611360576000841561134e578287015190505b61135885826112da565b8655506113c0565b601f19841661136e8661114a565b60005b8281101561139657848901518255600182019150602085019450602081019050611371565b868310156113b357848901516113af601f8916826112bc565b8355505b6001600288020188555050505b505050505050565b7f7468657265206973206e6f2070726f64756374206c6566740000000000000000600082015250565b60006113fe601883610eea565b9150611409826113c8565b602082019050919050565b6000602082019050818103600083015261142d816113f1565b9050919050565b61143d81610aa1565b82525050565b600061145e61145961145484610a81565b6111ce565b610a81565b9050919050565b600061147082611443565b9050919050565b600061148282611465565b9050919050565b61149281611477565b82525050565b60006060820190506114ad6000830186611434565b6114ba6020830185611489565b6114c76040830184610b4c565b949350505050565b6114d881610b0c565b81146114e357600080fd5b50565b6000815190506114f5816114cf565b92915050565b60006020828403121561151157611510610a77565b5b600061151f848285016114e6565b91505092915050565b7f5472616e73666572204661696c65640000000000000000000000000000000000600082015250565b600061155e600f83610eea565b915061156982611528565b602082019050919050565b6000602082019050818103600083015261158d81611551565b9050919050565b600061159f82610b42565b9150600082036115b2576115b1611073565b5b600182039050919050565b7f496e76616c69642070726f647563657220616464726573730000000000000000600082015250565b60006115f3601883610eea565b91506115fe826115bd565b602082019050919050565b60006020820190508181036000830152611622816115e6565b9050919050565b7f596f75206172652061726561647920612073656c6c6572000000000000000000600082015250565b600061165f601783610eea565b915061166a82611629565b602082019050919050565b6000602082019050818103600083015261168e81611652565b905091905056fea26469706673582212208ff6a1878cec2e19b291bbe826b5fe86ef7caaac73af1200fc450448a04255b264736f6c63430008130033",
  "linkReferences": {},
  "deployedLinkReferences": {}
}